:100000000C948A000C94B2000C94B2000C94B200D0
:100010000C94B2000C94B2000C94B2000C94B20098
:100020000C94B2000C94B2000C94B2000C94EB024D
:100030000C94B2000C94B2000C94B2000C94B20078
:100040000C9449020C94B2000C94B9020C949302E3
:100050000C94B2000C94B2000C94B2000C94B20058
:100060000C94B2000C94B20008000000BE92244927
:10007000123EABAAAA2ABECDCCCC4C3E00000080DA
:10008000BEABAAAAAA3E00000000BF000000803F4D
:100090000000000000084178D3BB4387D1133D190D
:1000A0000E3CC3BD4282AD2B3E68EC8276BED98F3A
:1000B000E1A93E4C80EFFFBE01C4FF7F3F0000007E
:1000C0000000000000080002010000030407000017
:1000D00000000000000000000000250028002B00A8
:1000E00000000000240027002A0004040404040483
:1000F00004040202020202020303030303030102D7
:1001000004081020408001020408102001020408A5
:100110001020AC0311241FBECFEFD8E0DEBFCDBF4F
:1001200011E0A0E0B1E0E2E1F0E102C005900D9243
:10013000A231B107D9F721E0A2E1B1E001C01D92DF
:10014000A53EB207E1F710E0CAE8D0E004C021976D
:10015000FE010E94FC07C938D107C9F70E940A04B2
:100160000C9407080C94000090E0FC01E250FF4F53
:100170002491FC01E651FF4F8491882399F090E08F
:10018000880F991FFC01E052FF4FA591B491FC012B
:10019000EA52FF4F859194918FB7F894EC91E22B3E
:1001A000EC938FBF089590E0FC01EE53FF4F249134
:1001B000FC01E250FF4F3491FC01E651FF4FE49106
:1001C000EE2309F43CC0222339F1233091F038F4B6
:1001D0002130A9F0223001F584B58F7D12C027307F
:1001E00091F02830A1F02430B9F4809180008F7D07
:1001F00003C0809180008F77809380000DC084B50C
:100200008F7784BD09C08091B0008F7703C0809143
:10021000B0008F7D8093B000F0E0EE0FFF1FEA5238
:10022000FF4FA591B4919FB7F894611104C08C91D0
:100230003095382302C0EC913E2B3C939FBF08952C
:100240008E3008F08E508770806480937C0080919F
:100250007A00806480937A0080917A0086FDFCCFDA
:10026000809178002091790090E0922B0895CF92B0
:10027000DF92EF92FF920F931F93CF93DF936C0166
:100280007A018B01C0E0D0E0CE15DF0581F0D80106
:100290006D918D01D601ED91FC910190F081E02DE1
:1002A000C6010995892B11F02196EECF7E01C70179
:1002B000DF91CF911F910F91FF90EF90DF90CF9042
:1002C0000895089580E090E00895FC01538D448DD9
:1002D000252F30E0842F90E0821B930B541710F0F1
:1002E000CF96089501970895FC01918D828D9817FE
:1002F00061F0828DDF01A80FB11D5D968C91928D0A
:100300009F5F9F73928F90E008958FEF9FEF089506
:10031000FC01918D828D981731F0828DE80FF11DCF
:10032000858D90E008958FEF9FEF0895FC01918DEA
:10033000228D892F90E0805C9F4F821B91098F73E3
:100340009927089580E291E00E94960121E0892B8F
:1003500009F420E0822F0895FC01848DDF01A80FAD
:10036000B11DA35ABF4F2C91848D90E001968F73DD
:100370009927848FA689B7892C93A089B1898C91FC
:10038000837080648C93938D848D981306C002884B
:10039000F389E02D80818F7D80830895EF92FF9215
:1003A0000F931F93CF93DF93EC0181E0888F9B8D98
:1003B0008C8D981305C0E889F989808185FD26C058
:1003C000F62E0B8D10E00F5F1F4F0F731127E02EDD
:1003D0008C8DE8120CC00FB607FCFACFE889F989BA
:1003E000808185FFF5CFCE010E94AC01F1CF8B8DCE
:1003F000FE01E80FF11DE35AFF4FF0829FB7F8941A
:100400000B8FEA89FB89808180620AC09FB7F894CC
:10041000EE89FF896083E889F9898081837080642F
:1004200080839FBF81E090E0DF91CF911F910F917A
:10043000FF90EF900895CF93DF93EC01888D882390
:10044000C9F0EA89FB89808185FD05C0A889B98941
:100450008C9186FD0FC00FB607FCF5CF808185FF1C
:10046000F2CFA889B9898C9185FFEDCFCE010E948A
:10047000AC01E7CFDF91CF91089580E090E0892B28
:1004800029F00E94A20181110C94000008950E949D
:1004900002081F920F920FB60F9211242F933F93D1
:1004A0008F939F93AF93BF9380911C0190911D01F7
:1004B000A0911E01B0911F0130911B0123E0230F79
:1004C0002D3720F40196A11DB11D05C026E8230F8C
:1004D0000296A11DB11D20931B0180931C019093D6
:1004E0001D01A0931E01B0931F01809117019091EF
:1004F0001801A0911901B0911A010196A11DB11D19
:100500008093170190931801A0931901B0931A01D9
:10051000BF91AF919F918F913F912F910F900FBEFF
:100520000F901F9018951F920F920FB60F921124E3
:100530002F933F934F935F936F937F938F939F93EB
:10054000AF93BF93EF93FF9380E291E00E94AC01E1
:10055000FF91EF91BF91AF919F918F917F916F919B
:100560005F914F913F912F910F900FBE0F901F9071
:1005700018951F920F920FB60F9211242F938F93FD
:100580009F93EF93FF93E0913001F09131018081CF
:10059000E0913601F091370182FD12C09081809187
:1005A00039018F5F8F7320913A01821751F0E091EA
:1005B0003901F0E0E05EFE4F958F8093390101C074
:1005C0008081FF91EF919F918F912F910F900FBE9E
:1005D0000F901F9018951F920F920FB60F92112433
:1005E0002F933F934F935F936F937F938F939F933B
:1005F000AF93BF93EF93FF938091120187FF05C0E4
:1006000010928500109284001BC020911201022ECE
:10061000000C330B8091E10190E02817390784F436
:1006200080911201082E000C990BFC01EE0FFF1FA8
:100630008E0F9F1FFC01E354FE4F808186FD15C085
:10064000809112018F5F8093120120911201022E7E
:10065000000C330B8091E10190E028173907C4F4B6
:10066000809112018C3064F113C080911201082E28
:10067000000C990BFC01EE0FFF1F8E0F9F1FFC015A
:10068000E354FE4F808160E08F730E94D300D8CF87
:100690008091840090918500049680349C4918F4E0
:1006A00080E49CE905C080918400909185000496C7
:1006B00090938900809388008FEF809312013BC054
:1006C000209184003091850080911201082E000C49
:1006D000990BFC01EE0FFF1F8E0F9F1FFC01E354CF
:1006E000FE4F81819281820F931F909389008093A6
:1006F000880080911201082E000C990BFC01EE0F6E
:10070000FF1F8E0F9F1FFC01E354FE4F808186FF69
:1007100012C080911201082E000C990BFC01EE0F03
:10072000FF1F8E0F9F1FFC01E354FE4F808161E08D
:100730008F730E94D300FF91EF91BF91AF919F9172
:100740008F917F916F915F914F913F912F910F907A
:100750000FBE0F901F901895109223011092220146
:1007600088EE93E0A0E0B0E080932401909325010F
:10077000A0932601B093270184E091E0909321019A
:100780008093200185EC90E090932D0180932C01C3
:1007900084EC90E090932F0180932E0180EC90E008
:1007A000909331018093300181EC90E0909333017C
:1007B0008093320182EC90E0909335018093340174
:1007C00086EC90E0909337018093360110923901C6
:1007D00010923A0110923B0110923C018091E1018C
:1007E0008C30A0F491E0980F9093E1018093E201A6
:1007F00090E0FC01EE0FFF1F8E0F9F1FFC01E354E2
:10080000FE4F88EB9BE09283818308958FEF809366
:10081000E2010895789484B5826084BD84B58160D6
:1008200084BD85B5826085BD85B5816085BD8091BB
:100830006E00816080936E00109281008091810033
:10084000826080938100809181008160809381002B
:10085000809180008160809380008091B1008460ED
:100860008093B1008091B00081608093B00080914E
:100870007A00846080937A0080917A00826080930D
:100880007A0080917A00816080937A0080917A006A
:10089000806880937A001092C100E0913001F0915D
:1008A000310182E08083E0912C01F0912D011082D2
:1008B000E0912E01F0912F018FEC8083109238018E
:1008C000E0913401F091350186E08083E0913201BE
:1008D000F0913301808180618083E0913201F09159
:1008E0003301808188608083E0913201F09133018F
:1008F000808180688083E0913201F09133018081B2
:100900008F7D808388E00E94B40084E00E94B40060
:100910008091E2018C3008F050C089E00E94B40060
:100920008091E201E82FF0E09F01220F331FE20FD8
:10093000F31FE354FE4F9081907C99609083109256
:10094000E3011092E4016CE00E94F0079CE0899FB3
:10095000B001112440E050E09B01240F351FF90144
:10096000EE0FFF1F2E0F3F1FF901E354FE4F908142
:1009700096FD16C04F5F5F4F4C30510569F78111EE
:100980000FC01092800082E0809381001092850059
:1009900010928400B19A80916F00826080936F0002
:1009A000E091E201F0E0CF01880F991FE80FF91FF5
:1009B000E354FE4F8081806480838EE00E9420019A
:1009C000BC01990F880B990B0E9449069B01AC0151
:1009D00060E070EC8FE794E40E94D50520E030E001
:1009E00040E85FE30E94680520E030E44CE156E413
:1009F0000E942A070E94E2066B017C012CE63FEC74
:100A000048E554E30E942A07A70196010E942A079D
:100A1000A70196010E942A074B015C0126ED34E6EE
:100A200049E759E3C701B6010E942A072BEC38E4D5
:100A300044E85AE30E9469059B01AC01C501B40179
:100A40000E9469059B01AC0160E070E080E89FE3D3
:100A50000E94D50523E333E948E853E40E94680582
:100A60006B017C0160931301709314018093150155
:100A7000909316018FE00E942001EC0120E030E00D
:100A80004CE852E4C701B6010E94D50687FD11C0AB
:100A900061E088E00E94D30061E089E00E94D30019
:100AA000219799F460E089E00E94D30061E084E03E
:100AB0000AC060E084E00E94D30060E088E00E9409
:100AC000D30061E089E00E94D3000E943D0275CF0F
:100AD0005058BB27AA270E9480050C949B060E94B1
:100AE0008D0638F00E94940620F039F49F3F19F4E7
:100AF00026F40C948A060EF4E095E7FB0C94840629
:100B0000E92F0E94AC0658F3BA17620773078407EF
:100B1000950720F079F4A6F50C94CE060EF4E09536
:100B20000B2EBA2FA02D0B01B90190010C01CA01A7
:100B3000A0011124FF27591B99F0593F50F4503E52
:100B400068F11A16F040A22F232F342F4427585F44
:100B5000F3CF469537952795A795F0405395C9F75C
:100B60007EF41F16BA0B620B730B840BBAF0915014
:100B7000A1F0FF0FBB1F661F771F881FC2F70EC0B3
:100B8000BA0F621F731F841F48F487957795679586
:100B9000B795F7959E3F08F0B0CF9395880F08F072
:100BA0009927EE0F9795879508950E94E9050C9473
:100BB0009B060E94940658F00E948D0640F029F48E
:100BC0005F3F29F00C94840651110C94CF060C94CD
:100BD0008A060E94AC0668F39923B1F3552391F37A
:100BE000951B550BBB27AA2762177307840738F09C
:100BF0009F5F5F4F220F331F441FAA1FA9F335D0F9
:100C00000E2E3AF0E0E832D091505040E695001CAC
:100C1000CAF72BD0FE2F29D0660F771F881FBB1F66
:100C2000261737074807AB07B0E809F0BB0B802D44
:100C3000BF01FF2793585F4F3AF09E3F510578F070
:100C40000C9484060C94CF065F3FE4F3983ED4F3F3
:100C5000869577956795B795F7959F5FC9F7880F44
:100C6000911D9695879597F90895E1E0660F771F96
:100C7000881FBB1F621773078407BA0720F0621B27
:100C8000730B840BBA0BEE1F88F7E0950895E89478
:100C900009C097FB3EF490958095709561957F4FC4
:100CA0008F4F9F4F9923A9F0F92F96E9BB27939572
:100CB000F695879577956795B795F111F8CFFAF482
:100CC000BB0F11F460FF1BC06F5F7F4F8F4F9F4FB3
:100CD00016C0882311F096E911C0772321F09EE811
:100CE000872F762F05C0662371F096E8862F70E077
:100CF00060E02AF09A95660F771F881FDAF7880F51
:100D00009695879597F9089597F99F6780E870E021
:100D100060E008959FEF80EC089500240A94161671
:100D2000170618060906089500240A9412161306D9
:100D3000140605060895092E0394000C11F4882367
:100D400052F0BB0F40F4BF2B11F460FF04C06F5F83
:100D50007F4F8F4F9F4F089557FD9058440F551F59
:100D600059F05F3F71F04795880F97FB991F61F02D
:100D70009F3F79F087950895121613061406551FA4
:100D8000F2CF4695F1DF08C0161617061806991F10
:100D9000F1CF86957105610508940895E894BB2705
:100DA00066277727CB0197F908950E94970708F4E3
:100DB0008FEF089516F00C94BB070C948A06689484
:100DC0000C9484060E94B406A8F39923C1F3AEF3F1
:100DD000DF93CF931F930F93FF92C92FDD278823B3
:100DE0002AF02197660F771F881FDAF720E030E09E
:100DF00040E85FEB9FE3883920F0803E38F0219691
:100E00008F770E946905E8E6F0E004C00E9469055A
:100E1000E5E9F0E00E94C9078B01BE01EC01FB2E61
:100E20006F5771097595771F880B990B0E944906BA
:100E300028E132E741E35FE30E943D07AF2D9801CF
:100E4000AE01FF900F911F91CF91DF910E9480051D
:100E50000C949B060E943D070C949B060E948D06F5
:100E600038F00E94940620F0952311F00C9484062B
:100E70000C948A0611240C94CF060E94AC0670F3E1
:100E8000959FC1F3950F50E0551F629FF001729F2F
:100E9000BB27F00DB11D639FAA27F00DB11DAA1F3E
:100EA000649F6627B00DA11D661F829F2227B00D8B
:100EB000A11D621F739FB00DA11D621F839FA00D16
:100EC000611D221F749F3327A00D611D231F849F66
:100ED000600D211D822F762F6A2F11249F575040BD
:100EE0009AF0F1F088234AF0EE0FFF1FBB1F661F38
:100EF000771F881F91505040A9F79E3F510580F001
:100F00000C9484060C94CF065F3FE4F3983ED4F330
:100F1000869577956795B795F795E7959F5FC1F7A4
:100F2000FE2B880F911D9695879597F90895990F37
:100F30000008550FAA0BE0E8FEEF16161706E807A3
:100F4000F907C0F012161306E407F50798F0621BC4
:100F5000730B840B950B39F40A2661F0232B242B99
:100F6000252B21F408950A2609F4A140A6958FEFB8
:100F7000811D811D08959F3F31F0915020F4879588
:100F800077956795B795880F911D9695879597F9F1
:100F90000895DF93CF931F930F93FF92EF92DF9209
:100FA0007B018C01689406C0DA2EEF010E943D0798
:100FB000FE01E894A5912591359145915591A6F3AF
:100FC000EF010E948005FE019701A801DA9469F7FC
:100FD000DF90EF90FF900F911F91CF91DF910895D7
:100FE000991B79E004C0991F961708F0961B881F7B
:100FF0007A95C9F780950895EE0FFF1F0590F4913B
:10100000E02D099481E090E0F8940C940708F8949E
:02101000FFCF10
:1010120000000000CE01370165011B029601740138
:02102200880143
:00000001FF
