:100000000C948A000C94B2000C94B2000C94B200D0
:100010000C94B2000C94B2000C94B2000C94B20098
:100020000C94B2000C94B2000C94B2000C94330403
:100030000C94B2000C94B2000C94B2000C94B20078
:100040000C9491030C94B2000C9401040C94DB0307
:100050000C94B2000C94B2000C94B2000C94B20058
:100060000C94B2000C94B20008000000BE92244927
:10007000123EABAAAA2ABECDCCCC4C3E00000080DA
:10008000BEABAAAAAA3E00000000BF000000803F4D
:100090000000000000084178D3BB4387D1133D190D
:1000A0000E3CC3BD4282AD2B3E68EC8276BED98F3A
:1000B000E1A93E4C80EFFFBE01C4FF7F3F0000007E
:1000C0000000000000080002010000030407000017
:1000D00000000000000000000000250028002B00A8
:1000E00000000000240027002A0004040404040483
:1000F00004040202020202020303030303030102D7
:1001000004081020408001020408102001020408A5
:100110001020F40411241FBECFEFD8E0DEBFCDBF06
:1001200011E0A0E0B1E0ECE9F6E102C005900D922B
:10013000AE34B107D9F722E0AEE4B1E001C01D92C0
:10014000A332B207E1F710E0CAE8D0E004C021977B
:10015000FE010E94410BC938D107C9F70E94520520
:100160000C944C0B0C94000090E0FC01E250FF4F0B
:100170002491FC01E651FF4F8491882399F090E08F
:10018000880F991FFC01E052FF4FA591B491FC012B
:10019000EA52FF4F859194918FB7F894EC91E22B3E
:1001A000EC938FBF0895CF92DF92EF92FF92DC0124
:1001B000A03282E0B8070CF03EC0B7FD06C0A53BF8
:1001C000B1052CF0A4EBB0E002C0A0E0B0E080915B
:1001D000210228E830E06901C81AD10887FDD394CC
:1001E000CC0CDD1CCC0CDD1C0D2C000CEE08FF082B
:1001F0008091220228E532E0281B310987FD3395E2
:10020000220F331F220F331FA901330F660B770B09
:100210009A01AB012C193D094E095F090E943B0868
:1002200024EB30E040E050E00E941108C20ED31EE3
:10023000E41EF51ED601909120029C3098F5809125
:10024000210248E850E0481B510987FD5395440FAF
:10025000551F440F551FA417B5078CF0809122023B
:1002600028E532E0281B310987FD3395220F331F23
:10027000220F331FAD012A173B070CF4A90142508E
:100280005109440F551F2FB7F894892F90E0FC01B6
:10029000EE0FFF1F8E0F9F1FFC01E550FE4F528394
:1002A00041832FBFFF90EF90DF90CF90089590E0B3
:1002B000FC01EE53FF4F2491FC01E250FF4F3491BB
:1002C000FC01E651FF4FE491EE2309F43CC02223E8
:1002D00039F1233091F038F42130A9F0223001F5C2
:1002E00084B58F7D12C0273091F02830A1F02430E2
:1002F000B9F4809180008F7D03C0809180008F775A
:10030000809380000DC084B58F7784BD09C0809133
:10031000B0008F7703C08091B0008F7D8093B000D4
:10032000F0E0EE0FFF1FEA52FF4FA591B4919FB787
:10033000F894611104C08C913095382302C0EC917F
:100340003E2B3C939FBF08958E3008F08E508770EF
:10035000806480937C0080917A00806480937A002E
:1003600080917A0086FDFCCF809178002091790001
:1003700090E0922B08953FB7F89480915A019091A4
:100380005B01A0915C01B0915D0126B5A89B05C001
:100390002F3F19F00196A11DB11D3FBFBA2FA92F04
:1003A000982F8827820F911DA11DB11DBC01CD0181
:1003B00042E0660F771F881F991F4A95D1F708956D
:1003C0008F929F92AF92BF92CF92DF92EF92FF9265
:1003D0006B017C010E94BB014B015C01C114D10483
:1003E000E104F104F1F00E94BB01DC01CB018819AA
:1003F0009909AA09BB09883E9340A105B10570F38C
:1004000021E0C21AD108E108F10888EE880E83E0E5
:10041000981EA11CB11CC114D104E104F10419F708
:10042000DDCFFF90EF90DF90CF90BF90AF909F9087
:100430008F900895CF92DF92EF92FF920F931F93C8
:10044000CF93DF936C017A018B01C0E0D0E0CE1531
:10045000DF0581F0D8016D918D01D601ED91FC9100
:100460000190F081E02DC6010995892B11F02196AC
:10047000EECF7E01C701DF91CF911F910F91FF90C9
:10048000EF90DF90CF900895089580E090E0089578
:10049000FC01538D448D252F30E0842F90E0821B8A
:1004A000930B541710F0CF96089501970895FC010F
:1004B000918D828D981761F0828DDF01A80FB11D9B
:1004C0005D968C91928D9F5F9F73928F90E00895BF
:1004D0008FEF9FEF0895FC01918D828D981731F079
:1004E000828DE80FF11D858D90E008958FEF9FEFCD
:1004F0000895FC01918D228D892F90E0805C9F4FA3
:10050000821B91098F73992708958EE591E00E94CF
:10051000790221E0892B09F420E0822F0895FC0163
:10052000848DDF01A80FB11DA35ABF4F2C91848D7C
:1005300090E001968F739927848FA689B7892C93B1
:10054000A089B1898C91837080648C93938D848D04
:10055000981306C00288F389E02D80818F7D808307
:100560000895EF92FF920F931F93CF93DF93EC01C7
:1005700081E0888F9B8D8C8D981305C0E889F9895F
:10058000808185FD26C0F62E0B8D10E00F5F1F4F7A
:100590000F731127E02E8C8DE8120CC00FB607FCEC
:1005A000FACFE889F989808185FFF5CFCE010E94D5
:1005B0008F02F1CF8B8DFE01E80FF11DE35AFF4F43
:1005C000F0829FB7F8940B8FEA89FB898081806263
:1005D0000AC09FB7F894EE89FF896083E889F9899A
:1005E00080818370806480839FBF81E090E0DF9191
:1005F000CF911F910F91FF90EF900895CF93DF93CC
:10060000EC01888D8823C9F0EA89FB89808185FD0A
:1006100005C0A889B9898C9186FD0FC00FB607FC6B
:10062000F5CF808185FFF2CFA889B9898C9185FFAC
:10063000EDCFCE010E948F02E7CFDF91CF910895D9
:1006400080E090E0892B29F00E94850281110C94B2
:1006500000000895892B79F41092800082E0809345
:1006600081001092850010928400B19A80916F00F1
:10067000826080936F000895009769F0FC010190FB
:100680000020E9F73197AF01481B590BBC018EE5FB
:1006900091E00C941A0280E090E008958F929F926E
:1006A000AF92BF920F931F93CF93DF93CDB7DEB777
:1006B000A1970FB6F894DEBF0FBECDBF19A242308E
:1006C00008F44AE08E010F5D1F4F842E912CA12C5F
:1006D000B12CA50194010E944308E62FB901CA017B
:1006E00001501109EA3014F4E05D01C0E95CD80161
:1006F000EC93232B242B252B61F7C8010E943C038C
:10070000A1960FB6F894DEBF0FBECDBFDF91CF919B
:100710001F910F91BF90AF909F908F9008950E946E
:10072000470B1F920F920FB60F9211242F933F93F6
:100730008F939F93AF93BF938091560190915701F0
:10074000A0915801B09159013091550123E0230F38
:100750002D3720F40196A11DB11D05C026E8230FF9
:100760000296A11DB11D20935501809356019093CF
:100770005701A0935801B093590180915A0190916B
:100780005B01A0915C01B0915D010196A11DB11DBD
:1007900080935A0190935B01A0935C01B0935D013B
:1007A000BF91AF919F918F913F912F910F900FBE6D
:1007B0000F901F9018951F920F920FB60F92112451
:1007C0002F933F934F935F936F937F938F939F9359
:1007D000AF93BF93EF93FF938EE591E00E948F025A
:1007E000FF91EF91BF91AF919F918F917F916F9109
:1007F0005F914F913F912F910F900FBE0F901F90DF
:1008000018951F920F920FB60F9211242F938F936A
:100810009F93EF93FF93E0916E01F0916F018081C0
:10082000E0917401F091750182FD12C09081809178
:1008300077018F5F8F7320917801821751F0E091DB
:100840007701F0E0E25AFE4F958F8093770101C067
:100850008081FF91EF919F918F912F910F900FBE0B
:100860000F901F9018951F920F920FB60F921124A0
:100870002F933F934F935F936F937F938F939F93A8
:10088000AF93BF93EF93FF9380914E0187FF05C015
:1008900010928500109284001BC020914E01022E00
:1008A000000C330B80911F0290E02817390784F465
:1008B00080914E01082E000C990BFC01EE0FFF1FDA
:1008C0008E0F9F1FFC01E550FE4F808186FD15C0F5
:1008D00080914E018F5F80934E0120914E01022E38
:1008E000000C330B80911F0290E028173907C4F4E5
:1008F00080914E018C3064F113C080914E01082E1E
:10090000000C990BFC01EE0FFF1F8E0F9F1FFC01C7
:10091000E550FE4F808160E08F730E945701D8CF71
:100920008091840090918500049680349C4918F44D
:1009300080E49CE905C08091840090918500049634
:1009400090938900809388008FEF80934E013BC085
:10095000209184003091850080914E01082E000C7A
:10096000990BFC01EE0FFF1F8E0F9F1FFC01E5503E
:10097000FE4F81819281820F931F90938900809313
:10098000880080914E01082E000C990BFC01EE0F9F
:10099000FF1F8E0F9F1FFC01E550FE4F808186FFD9
:1009A00012C080914E01082E000C990BFC01EE0F35
:1009B000FF1F8E0F9F1FFC01E550FE4F808161E0FD
:1009C0008F730E945701FF91EF91BF91AF919F915B
:1009D0008F917F916F915F914F913F912F910F90E8
:1009E0000FBE0F901F901895109261011092600138
:1009F00088EE93E0A0E0B0E0809362019093630101
:100A0000A0936401B093650184E091E090935F014D
:100A100080935E0185EC90E090936B0180936A0176
:100A200084EC90E090936D0180936C0180EC90E0F9
:100A300090936F0180936E0181EC90E0909371012F
:100A40008093700182EC90E0909373018093720127
:100A500086EC90E090937501809374011092770179
:100A6000109278011092790110927A0180911F0200
:100A70008C30A0F491E0980F90931F028093200295
:100A800090E0FC01EE0FFF1F8E0F9F1FFC01E55051
:100A9000FE4F88EB9BE09283818308958FEF8093D4
:100AA00020020895789484B5826084BD84B5816005
:100AB00084BD85B5826085BD85B5816085BD809129
:100AC0006E00816080936E001092810080918100A1
:100AD0008260809381008091810081608093810099
:100AE000809180008160809380008091B10084605B
:100AF0008093B1008091B00081608093B0008091BC
:100B00007A00846080937A0080917A00826080937A
:100B10007A0080917A00816080937A0080917A00D7
:100B2000806880937A001092C100E0916E01F0918C
:100B30006F0182E08083E0916A01F0916B01108285
:100B4000E0916C01F0916D018FEC80831092760141
:100B5000E0917201F091730186E08083E091700171
:100B6000F0917101808180618083E0917001F0914A
:100B70007101808188608083E0917001F091710142
:100B8000808180688083E0917001F09171018081A3
:100B90008F7D808388E00E94B40084E00E94B400CE
:100BA000809120028C3008F042C089E00E94B4009D
:100BB00080912002E82FF0E09F01220F331FE20F07
:100BC000F31FE550FE4F9081907C996090831092C6
:100BD0002102109222026CE00E94350B90E02CE082
:100BE000829FB001112440E050E09B01240F351F8B
:100BF000F901EE0FFF1F2E0F3F1FF901E550FE4FC9
:100C0000208126FD07C04F5F5F4F4C30510569F7CB
:100C10000E942A03E0912002F0E0CF01880F991F83
:100C2000E80FF91FE550FE4F8081806480831CE04F
:100C3000C4EBD0E08EE00E94A401BC01990F880BA8
:100C4000990B0E9489099B01AC0160E070EC8FE771
:100C500094E40E94E60820E030E040E85FE30E9470
:100C6000740820E030E44CE156E40E948E0A0E94B1
:100C7000460A6B017C012CE63FEC48E554E30E94F8
:100C80008E0AA70196010E948E0AA70196010E9472
:100C90008E0A4B015C0126ED34E649E759E3C701B2
:100CA000B6010E948E0A2BEC38E444E85AE30E9415
:100CB00075089B01AC01C501B4010E9475089B0138
:100CC000AC0160E070E080E89FE30E94E60823E367
:100CD00033E948E853E40E9474086093510170932B
:100CE0005201809353019093540182E191E00E945C
:100CF0003C03C0905101D0905201E0905301F0901C
:100D00005401A7019601C701B6010E94FB0A88237E
:100D100019F080E291E01AC046015701E894B7F853
:100D20002FEF3FEF4FE75FE7C501B4010E94FB0AD9
:100D300081110FC02FEF3FEF4FE75FE7C501B4010F
:100D40000E94E10818162CF484E291E00E943C0312
:100D500076C02FEF3FEF4FE75FE4C701B6010E9477
:100D6000390A18161CF488E291E0F0CF2FEF3FEF1C
:100D70004FE75FECC701B6010E94E10887FDF3CFA2
:100D800020E030E0A901C701B6010E94E10887FF19
:100D900009C06DE28EE591E00E94B102F7FAF0948D
:100DA000F7F8F0942AE037ED43EA5BE3C701B601B8
:100DB0000E9475084B015C010E9458096B017C017F
:100DC0000E9487099B01AC01C501B4010E9474080F
:100DD0004B015C014AE0C701B6010E944E036EE27E
:100DE0008EE591E00E94B10220E030E040E251E463
:100DF000C501B4010E948E0A4B015C010E94580992
:100E00006B01E12CF12C4AE0C701B6010E944E03B0
:100E1000C701B6010E9487099B01AC01C501B4015D
:100E20000E94740820E030E040E251E40E948E0A03
:100E30000E94580980E090E04AE00E944E038CE254
:100E400091E00E943C038FE291E00E943C0364EF3A
:100E500071E080E090E00E94E0018FE00E94A40138
:100E60006C0182E391E00E943C0346010D2C000CD2
:100E7000AA08BB08B7FE0EC06DE28EE591E00E94A5
:100E8000B10266277727CB01681979098A099B097E
:100E90004AE003C04AE0C501B4010E944E038FE25C
:100EA00091E00E943C0320E030E040E752E4609192
:100EB00051017091520180915301909154010E940F
:100EC000390A87FD58C01092500110924F01E090EE
:100ED0004F01F090500185EBE816F1048CF4C70146
:100EE0000E94D3006FE070E080E090E00E94E0019B
:100EF0009FEFE91AF90AF0925001E0924F01E7CF13
:100F0000D0935001C0934F01E0904F01F0905001F9
:100F1000F7FC11C0C7010E94D3006FE070E080E0D1
:100F200090E00E94E00121E0E21AF108F092500105
:100F3000E0924F01E9CF61E088E00E94570185EF20
:100F4000C81681E0D8060CF069C08AE391E00E94DF
:100F50003C03E0912002F0E0CF01880F991FE80FD9
:100F6000F91FE550FE4F80818F7B808361E084E034
:100F70000E94570153C085E491E00E943C0360E069
:100F800084E00E94570160E088E00E945701809150
:100F900020028C3008F042C089E00E94B4008091A9
:100FA0002002E82FF0E09F01220F331FE20FF31F12
:100FB000E550FE4F9081907C9960908310922102C1
:100FC00010922202612F0E94350B9CE0899FB00194
:100FD000112440E050E09B01240F351FF901EE0F72
:100FE000FF1F2E0F3F1FF901E550FE4F908196FD28
:100FF00008C04F5F5F4F4C30510569F790E00E9489
:101000002A03E0912002F0E0CF01880F991FE80F3A
:10101000F91FE550FE4F8081806480830E94200389
:1010200009CE052E97FB1EF400940E94280857FD58
:1010300007D00E94430807FC03D04EF40C94280804
:1010400050954095309521953F4F4F4F5F4F0895F4
:1010500090958095709561957F4F8F4F9F4F089524
:101060000E946508A59F900DB49F900DA49F800DD0
:10107000911D11240895B7FF0C9430080E94300888
:10108000821B930B0895A1E21A2EAA1BBB1BFD0124
:101090000DC0AA1FBB1FEE1FFF1FA217B307E40757
:1010A000F50720F0A21BB30BE40BF50B661F771FAF
:1010B000881F991F1A9469F760957095809590958F
:1010C0009B01AC01BD01CF010895A29FB001B39F68
:1010D000C001A39F700D811D1124911DB29F700D41
:1010E000811D1124911D08955058BB27AA270E94E5
:1010F0008C080C94FF090E94F10938F00E94F8094D
:1011000020F039F49F3F19F426F40C94EE090EF404
:10111000E095E7FB0C94E809E92F0E94100A58F3C8
:10112000BA17620773078407950720F079F4A6F5CC
:101130000C94320A0EF4E0950B2EBA2FA02D0B0161
:10114000B90190010C01CA01A0011124FF27591B0C
:1011500099F0593F50F4503E68F11A16F040A22F12
:10116000232F342F4427585FF3CF46953795279583
:10117000A795F0405395C9F77EF41F16BA0B620B82
:10118000730B840BBAF09150A1F0FF0FBB1F661FC9
:10119000771F881FC2F70EC0BA0F621F731F841F0C
:1011A00048F4879577956795B795F7959E3F08F032
:1011B000B0CF9395880F08F09927EE0F97958795F4
:1011C00008950E94C40908F481E008950E94FA0875
:1011D0000C94FF090E94F80958F00E94F10940F0B0
:1011E00029F45F3F29F00C94E80951110C94330A5B
:1011F0000C94EE090E94100A68F39923B1F3552369
:1012000091F3951B550BBB27AA2762177307840719
:1012100038F09F5F5F4F220F331F441FAA1FA9F3AF
:1012200035D00E2E3AF0E0E832D091505040E6959D
:10123000001CCAF72BD0FE2F29D0660F771F881FFE
:10124000BB1F261737074807AB07B0E809F0BB0BF1
:10125000802DBF01FF2793585F4F3AF09E3F510505
:1012600078F00C94E8090C94330A5F3FE4F3983E5D
:10127000D4F3869577956795B795F7959F5FC9F7EE
:10128000880F911D9695879597F90895E1E0660F6F
:10129000771F881FBB1F621773078407BA0720F0E8
:1012A000621B730B840BBA0BEE1F88F7E095089551
:1012B0000E94180A88F09F5798F0B92F9927B751C4
:1012C000B0F0E1F0660F771F881F991F1AF0BA95EA
:1012D000C9F714C0B13091F00E94320AB1E008950C
:1012E0000C94320A672F782F8827B85F39F0B93FFE
:1012F000CCF3869577956795B395D9F73EF490959D
:101300008095709561957F4F8F4F9F4F0895E8941A
:1013100009C097FB3EF490958095709561957F4F3D
:101320008F4F9F4F9923A9F0F92F96E9BB279395EB
:10133000F695879577956795B795F111F8CFFAF4FB
:10134000BB0F11F460FF1BC06F5F7F4F8F4F9F4F2C
:1013500016C0882311F096E911C0772321F09EE88A
:10136000872F762F05C0662371F096E8862F70E0F0
:1013700060E02AF09A95660F771F881FDAF7880FCA
:101380009695879597F90895990F0008550FAA0B20
:10139000E0E8FEEF16161706E807F907C0F0121688
:1013A0001306E407F50798F0621B730B840B950B8B
:1013B00039F40A2661F0232B242B252B21F40895E0
:1013C0000A2609F4A140A6958FEF811D811D08957D
:1013D00097F99F6780E870E060E008959FEF80ECE8
:1013E000089500240A94161617061806090608958B
:1013F00000240A9412161306140605060895092EF1
:101400000394000C11F4882352F0BB0F40F4BF2B5F
:1014100011F460FF04C06F5F7F4F8F4F9F4F08959F
:1014200057FD9058440F551F59F05F3F71F0479595
:10143000880F97FB991F61F09F3F79F0879508957A
:10144000121613061406551FF2CF4695F1DF08C099
:10145000161617061806991FF1CF869571056105B6
:1014600008940895E894BB2766277727CB0197F95E
:1014700008950E94C40908F48FEF089516F00C94A3
:10148000000B0C94EE0968940C94E8090E94180A69
:10149000A8F39923C1F3AEF3DF93CF931F930F9378
:1014A000FF92C92FDD2788232AF02197660F771F27
:1014B000881FDAF720E030E040E85FEB9FE38839EF
:1014C00020F0803E38F021968F770E947508E8E67C
:1014D000F0E004C00E947508E5E9F0E00E940E0B00
:1014E0008B01BE01EC01FB2E6F5771097595771FBB
:1014F000880B990B0E94890928E132E741E35FE3F9
:101500000E94A10AAF2D9801AE01FF900F911F918B
:10151000CF91DF910E948C080C94FF090E94A10AD0
:101520000C94FF090E94F10938F00E94F80920F09C
:10153000952311F00C94E8090C94EE0911240C94F5
:10154000330A0E94100A70F3959FC1F3950F50E083
:10155000551F629FF001729FBB27F00DB11D639F65
:10156000AA27F00DB11DAA1F649F6627B00DA11D0B
:10157000661F829F2227B00DA11D621F739FB00DB1
:10158000A11D621F839FA00D611D221F749F332721
:10159000A00D611D231F849F600D211D822F762FBA
:1015A0006A2F11249F5750409AF0F1F088234AF097
:1015B000EE0FFF1FBB1F661F771F881F9150504003
:1015C000A9F79E3F510580F00C94E8090C94330A6A
:1015D0005F3FE4F3983ED4F3869577956795B7958A
:1015E000F795E7959F5FC1F7FE2B880F911D9695A4
:1015F000879597F908950E94C409880B990B08955F
:101600009F3F31F0915020F4879577956795B79576
:10161000880F911D9695879597F90895DF93CF933D
:101620001F930F93FF92EF92DF927B018C016894DE
:1016300006C0DA2EEF010E94A10AFE01E894A591EE
:101640002591359145915591A6F3EF010E948C08A3
:10165000FE019701A801DA9469F7DF90EF90FF90FF
:101660000F911F91CF91DF910895991B79E004C0EC
:10167000991F961708F0961B881F7A95C9F78095D1
:101680000895EE0FFF1F0590F491E02D099481E07D
:0C16900090E0F8940C944C0BF894FFCF01
:10169C0000000000B1021A024802FE027902570251
:1016AC006B0254656D70657261747572653A2000D9
:1016BC006E616E00696E66006F7666002043000DE9
:1016CC000A0056616C7565203A00466F756E642091
:0E16DC0046697265004E4F2046495245000097
:107E0000112484B714BE81FFF0D085E080938100F7
:107E100082E08093C00088E18093C10086E0809377
:107E2000C20080E18093C4008EE0C9D0259A86E02C
:107E300020E33CEF91E0309385002093840096BBD3
:107E4000B09BFECF1D9AA8958150A9F7CC24DD24C4
:107E500088248394B5E0AB2EA1E19A2EF3E0BF2EE7
:107E6000A2D0813461F49FD0082FAFD0023811F036
:107E7000013811F484E001C083E08DD089C08234E0
:107E800011F484E103C0853419F485E0A6D080C0E4
:107E9000853579F488D0E82EFF2485D0082F10E0AE
:107EA000102F00270E291F29000F111F8ED06801E7
:107EB0006FC0863521F484E090D080E0DECF843638
:107EC00009F040C070D06FD0082F6DD080E0C81688
:107ED00080E7D80618F4F601B7BEE895C0E0D1E017
:107EE00062D089930C17E1F7F0E0CF16F0E7DF06D8
:107EF00018F0F601B7BEE89568D007B600FCFDCFD4
:107F0000A601A0E0B1E02C9130E011968C91119780
:107F100090E0982F8827822B932B1296FA010C0160
:107F200087BEE89511244E5F5F4FF1E0A038BF0790
:107F300051F7F601A7BEE89507B600FCFDCF97BE46
:107F4000E89526C08437B1F42ED02DD0F82E2BD052
:107F50003CD0F601EF2C8F010F5F1F4F84911BD097
:107F6000EA94F801C1F70894C11CD11CFA94CF0C13
:107F7000D11C0EC0853739F428D08EE10CD085E9AC
:107F80000AD08FE07ACF813511F488E018D01DD067
:107F900080E101D065CF982F8091C00085FFFCCF94
:107FA0009093C60008958091C00087FFFCCF809118
:107FB000C00084FD01C0A8958091C6000895E0E648
:107FC000F0E098E1908380830895EDDF803219F02E
:107FD00088E0F5DFFFCF84E1DECF1F93182FE3DFCA
:107FE0001150E9F7F2DF1F91089580E0E8DFEE27F6
:047FF000FF270994CA
:027FFE00040479
:0400000300007E007B
:00000001FF
